{
  "address": "0x59b31D2181Ec78BC366dDd34a5BcaB0FE1384648",
  "abi": [
    {
      "inputs": [],
      "stateMutability": "nonpayable",
      "type": "constructor"
    },
    {
      "anonymous": false,
      "inputs": [
        {
          "indexed": true,
          "internalType": "address",
          "name": "user",
          "type": "address"
        },
        {
          "indexed": true,
          "internalType": "address",
          "name": "contractAddress",
          "type": "address"
        },
        {
          "indexed": true,
          "internalType": "address",
          "name": "cartesiDapp",
          "type": "address"
        },
        {
          "indexed": false,
          "internalType": "uint256",
          "name": "collectionID",
          "type": "uint256"
        }
      ],
      "name": "AIDeGenCreated",
      "type": "event"
    },
    {
      "anonymous": false,
      "inputs": [
        {
          "indexed": true,
          "internalType": "bytes32",
          "name": "role",
          "type": "bytes32"
        },
        {
          "indexed": true,
          "internalType": "bytes32",
          "name": "previousAdminRole",
          "type": "bytes32"
        },
        {
          "indexed": true,
          "internalType": "bytes32",
          "name": "newAdminRole",
          "type": "bytes32"
        }
      ],
      "name": "RoleAdminChanged",
      "type": "event"
    },
    {
      "anonymous": false,
      "inputs": [
        {
          "indexed": true,
          "internalType": "bytes32",
          "name": "role",
          "type": "bytes32"
        },
        {
          "indexed": true,
          "internalType": "address",
          "name": "account",
          "type": "address"
        },
        {
          "indexed": true,
          "internalType": "address",
          "name": "sender",
          "type": "address"
        }
      ],
      "name": "RoleGranted",
      "type": "event"
    },
    {
      "anonymous": false,
      "inputs": [
        {
          "indexed": true,
          "internalType": "bytes32",
          "name": "role",
          "type": "bytes32"
        },
        {
          "indexed": true,
          "internalType": "address",
          "name": "account",
          "type": "address"
        },
        {
          "indexed": true,
          "internalType": "address",
          "name": "sender",
          "type": "address"
        }
      ],
      "name": "RoleRevoked",
      "type": "event"
    },
    {
      "inputs": [],
      "name": "DEFAULT_ADMIN_ROLE",
      "outputs": [
        {
          "internalType": "bytes32",
          "name": "",
          "type": "bytes32"
        }
      ],
      "stateMutability": "view",
      "type": "function"
    },
    {
      "inputs": [],
      "name": "cartesiDapp",
      "outputs": [
        {
          "internalType": "address",
          "name": "",
          "type": "address"
        }
      ],
      "stateMutability": "view",
      "type": "function"
    },
    {
      "inputs": [],
      "name": "collectionCounter",
      "outputs": [
        {
          "internalType": "uint256",
          "name": "",
          "type": "uint256"
        }
      ],
      "stateMutability": "view",
      "type": "function"
    },
    {
      "inputs": [
        {
          "internalType": "bytes",
          "name": "prompt",
          "type": "bytes"
        }
      ],
      "name": "generateNftCollection",
      "outputs": [],
      "stateMutability": "payable",
      "type": "function"
    },
    {
      "inputs": [
        {
          "internalType": "bytes32",
          "name": "role",
          "type": "bytes32"
        }
      ],
      "name": "getRoleAdmin",
      "outputs": [
        {
          "internalType": "bytes32",
          "name": "",
          "type": "bytes32"
        }
      ],
      "stateMutability": "view",
      "type": "function"
    },
    {
      "inputs": [
        {
          "internalType": "bytes32",
          "name": "role",
          "type": "bytes32"
        },
        {
          "internalType": "address",
          "name": "account",
          "type": "address"
        }
      ],
      "name": "grantRole",
      "outputs": [],
      "stateMutability": "nonpayable",
      "type": "function"
    },
    {
      "inputs": [
        {
          "internalType": "bytes32",
          "name": "role",
          "type": "bytes32"
        },
        {
          "internalType": "address",
          "name": "account",
          "type": "address"
        }
      ],
      "name": "hasRole",
      "outputs": [
        {
          "internalType": "bool",
          "name": "",
          "type": "bool"
        }
      ],
      "stateMutability": "view",
      "type": "function"
    },
    {
      "inputs": [
        {
          "internalType": "uint256",
          "name": "collectionID",
          "type": "uint256"
        },
        {
          "internalType": "address",
          "name": "_to",
          "type": "address"
        }
      ],
      "name": "mintOnACollection",
      "outputs": [],
      "stateMutability": "payable",
      "type": "function"
    },
    {
      "inputs": [
        {
          "internalType": "address",
          "name": "user",
          "type": "address"
        },
        {
          "internalType": "string",
          "name": "cid",
          "type": "string"
        },
        {
          "internalType": "bytes",
          "name": "_notice",
          "type": "bytes"
        },
        {
          "components": [
            {
              "internalType": "uint256",
              "name": "epochIndex",
              "type": "uint256"
            },
            {
              "internalType": "uint256",
              "name": "inputIndex",
              "type": "uint256"
            },
            {
              "internalType": "uint256",
              "name": "outputIndex",
              "type": "uint256"
            },
            {
              "internalType": "bytes32",
              "name": "outputHashesRootHash",
              "type": "bytes32"
            },
            {
              "internalType": "bytes32",
              "name": "vouchersEpochRootHash",
              "type": "bytes32"
            },
            {
              "internalType": "bytes32",
              "name": "noticesEpochRootHash",
              "type": "bytes32"
            },
            {
              "internalType": "bytes32",
              "name": "machineStateHash",
              "type": "bytes32"
            },
            {
              "internalType": "bytes32[]",
              "name": "keccakInHashesSiblings",
              "type": "bytes32[]"
            },
            {
              "internalType": "bytes32[]",
              "name": "outputHashesInEpochSiblings",
              "type": "bytes32[]"
            }
          ],
          "internalType": "struct OutputValidityProof",
          "name": "_v",
          "type": "tuple"
        }
      ],
      "name": "newNFTCollection",
      "outputs": [],
      "stateMutability": "nonpayable",
      "type": "function"
    },
    {
      "inputs": [
        {
          "internalType": "uint256",
          "name": "",
          "type": "uint256"
        }
      ],
      "name": "nftCollections",
      "outputs": [
        {
          "internalType": "address",
          "name": "",
          "type": "address"
        }
      ],
      "stateMutability": "view",
      "type": "function"
    },
    {
      "inputs": [],
      "name": "owner",
      "outputs": [
        {
          "internalType": "address",
          "name": "",
          "type": "address"
        }
      ],
      "stateMutability": "view",
      "type": "function"
    },
    {
      "inputs": [
        {
          "internalType": "bytes32",
          "name": "role",
          "type": "bytes32"
        },
        {
          "internalType": "address",
          "name": "account",
          "type": "address"
        }
      ],
      "name": "renounceRole",
      "outputs": [],
      "stateMutability": "nonpayable",
      "type": "function"
    },
    {
      "inputs": [
        {
          "internalType": "bytes32",
          "name": "role",
          "type": "bytes32"
        },
        {
          "internalType": "address",
          "name": "account",
          "type": "address"
        }
      ],
      "name": "revokeRole",
      "outputs": [],
      "stateMutability": "nonpayable",
      "type": "function"
    },
    {
      "inputs": [
        {
          "internalType": "address",
          "name": "_cartesiDapp",
          "type": "address"
        }
      ],
      "name": "setCartesiDapp",
      "outputs": [],
      "stateMutability": "nonpayable",
      "type": "function"
    },
    {
      "inputs": [
        {
          "internalType": "bytes4",
          "name": "interfaceId",
          "type": "bytes4"
        }
      ],
      "name": "supportsInterface",
      "outputs": [
        {
          "internalType": "bool",
          "name": "",
          "type": "bool"
        }
      ],
      "stateMutability": "view",
      "type": "function"
    },
    {
      "inputs": [
        {
          "internalType": "bytes32",
          "name": "",
          "type": "bytes32"
        }
      ],
      "name": "usedNotices",
      "outputs": [
        {
          "internalType": "bool",
          "name": "",
          "type": "bool"
        }
      ],
      "stateMutability": "view",
      "type": "function"
    },
    {
      "inputs": [],
      "name": "withdraw",
      "outputs": [],
      "stateMutability": "nonpayable",
      "type": "function"
    }
  ],
  "transactionHash": "0xbda59279d8a59a3a80218f06b533bba41681ea9d64dde0093b4f2ceb9c8df40a",
  "args": [],
  "numDeployments": 1,
  "solcInputHash": "d09995d7ea6c83de171efee5bdfe3c1a",
  "bytecode": "0x6080604052600060045534801561001557600080fd5b50600180546001600160a01b031916331790556138bc806100376000396000f3fe608060405260043610620001135760003560e01c80638da5cb5b11620000a1578063a217fddf116200006c578063a217fddf1462000303578063bfca66c9146200031a578063d547741f1462000354578063d96e78081462000379578063f4d0f8b114620003ba57600080fd5b80638da5cb5b146200025c5780639022c36c146200029757806391d1485414620002bc5780639371558414620002e157600080fd5b806336568abe11620000e257806336568abe14620001d35780633ccfd60b14620001f85780633d4cb14414620002105780635187a82d146200024457600080fd5b806301ffc9a714620001185780630ff1e5561462000152578063248a9ca3146200016b5780632f2ff15d14620001ae575b600080fd5b3480156200012557600080fd5b506200013d6200013736600462000d07565b620003d1565b60405190151581526020015b60405180910390f35b620001696200016336600462000d50565b620003e4565b005b3480156200017857600080fd5b506200019f6200018a36600462000d7f565b60009081526020819052604090206001015490565b60405190815260200162000149565b348015620001bb57600080fd5b5062000169620001cd36600462000d50565b620004b7565b348015620001e057600080fd5b5062000169620001f236600462000d50565b620004e5565b3480156200020557600080fd5b506200016962000567565b3480156200021d57600080fd5b506200013d6200022f36600462000d7f565b60056020526000908152604090205460ff1681565b3480156200025157600080fd5b506200019f60045481565b3480156200026957600080fd5b506001546200027e906001600160a01b031681565b6040516001600160a01b03909116815260200162000149565b348015620002a457600080fd5b5062000169620002b636600462000e15565b62000609565b348015620002c957600080fd5b506200013d620002db36600462000d50565b62000868565b348015620002ee57600080fd5b506002546200027e906001600160a01b031681565b3480156200031057600080fd5b506200019f600081565b3480156200032757600080fd5b506200027e6200033936600462000d7f565b6003602052600090815260409020546001600160a01b031681565b3480156200036157600080fd5b50620001696200037336600462000d50565b62000891565b3480156200038657600080fd5b50620001696200039836600462000f38565b600280546001600160a01b0319166001600160a01b0392909216919091179055565b62000169620003cb36600462000f56565b620008ba565b6000620003de826200098e565b92915050565b67016345785d8a0000341015620004425760405162461bcd60e51b815260206004820181905260248201527f4e6f7420656e6f7567682066756e647320746f2067656e6572617465204e465460448201526064015b60405180910390fd5b600082815260036020526040908190205490516340d097c360e01b81526001600160a01b0383811660048301529091169081906340d097c390602401600060405180830381600087803b1580156200049957600080fd5b505af1158015620004ae573d6000803e3d6000fd5b50505050505050565b600082815260208190526040902060010154620004d481620009c5565b620004e08383620009d1565b505050565b6001600160a01b0381163314620005575760405162461bcd60e51b815260206004820152602f60248201527f416363657373436f6e74726f6c3a2063616e206f6e6c792072656e6f756e636560448201526e103937b632b9903337b91039b2b63360891b606482015260840162000439565b62000563828262000a59565b5050565b6001546040516000916001600160a01b03169047908381818185875af1925050503d8060008114620005b6576040519150601f19603f3d011682016040523d82523d6000602084013e620005bb565b606091505b5090915050600181151514620006065760405162461bcd60e51b815260206004820152600f60248201526e15da5d1a191c985dc819985a5b1959608a1b604482015260640162000439565b50565b600254604051634f8192c960e01b81526001600160a01b0390911690634f8192c9906200063f9086908690869060040162001044565b602060405180830381865afa1580156200065d573d6000803e3d6000fd5b505050506040513d601f19601f8201168201806040525081019062000683919062001100565b1515600114620006e45760405162461bcd60e51b815260206004820152602560248201527f54686973206e6f7469636520646f6573206e6f7420686176652076616c696420604482015264383937b7b360d91b606482015260840162000439565b6000838383604051602001620006fd9392919062001044565b60408051601f1981840301815291815281516020928301206000818152600590935291205490915060ff1615620007815760405162461bcd60e51b815260206004820152602160248201527f54686973206e6f746963652068617320616c7265616479206265656e207573656044820152601960fa1b606482015260840162000439565b600081815260056020526040808220805460ff191660011790555187908790620007ab9062000cf9565b620007b892919062001178565b604051809103906000f080158015620007d5573d6000803e3d6000fd5b506004805460009081526003602090815260409182902080546001600160a01b0319166001600160a01b0386811691821790925560025494549351938452949550928316928b16917f7809fa38b05a10a7408ba054f333c25778df297a91a7a42e07ebbaf5eb835fe5910160405180910390a4600480549060006200085a83620011bc565b919050555050505050505050565b6000918252602082815260408084206001600160a01b0393909316845291905290205460ff1690565b600082815260208190526040902060010154620008ae81620009c5565b620004e0838362000a59565b67016345785d8a0000341015620009145760405162461bcd60e51b815260206004820181905260248201527f4e6f7420656e6f7567682066756e647320746f2067656e6572617465204e4654604482015260640162000439565b600254604051631e640f1d60e31b81526001600160a01b039091169063f32078e890620009489085908590600401620011d8565b6020604051808303816000875af115801562000968573d6000803e3d6000fd5b505050506040513d601f19601f82011682018060405250810190620004e09190620011ee565b60006001600160e01b03198216637965db0b60e01b1480620003de57506301ffc9a760e01b6001600160e01b0319831614620003de565b62000606813362000ac1565b620009dd828262000868565b62000563576000828152602081815260408083206001600160a01b03851684529091529020805460ff1916600117905562000a153390565b6001600160a01b0316816001600160a01b0316837f2f8788117e7eff1d82e926ec794901d17c78024a50270940304540a733656f0d60405160405180910390a45050565b62000a65828262000868565b1562000563576000828152602081815260408083206001600160a01b0385168085529252808320805460ff1916905551339285917ff6391f5c32d9c69d2a47ea670b442974b53935d1edc7fd64eb21e047a839171b9190a45050565b62000acd828262000868565b620005635762000add8162000b25565b62000aea83602062000b38565b60405160200162000afd92919062001208565b60408051601f198184030181529082905262461bcd60e51b8252620004399160040162001281565b6060620003de6001600160a01b03831660145b6060600062000b4983600262001296565b62000b56906002620012b0565b67ffffffffffffffff81111562000b715762000b7162000d99565b6040519080825280601f01601f19166020018201604052801562000b9c576020820181803683370190505b509050600360fc1b8160008151811062000bba5762000bba620012c6565b60200101906001600160f81b031916908160001a905350600f60fb1b8160018151811062000bec5762000bec620012c6565b60200101906001600160f81b031916908160001a905350600062000c1284600262001296565b62000c1f906001620012b0565b90505b600181111562000ca1576f181899199a1a9b1b9c1cb0b131b232b360811b85600f166010811062000c575762000c57620012c6565b1a60f81b82828151811062000c705762000c70620012c6565b60200101906001600160f81b031916908160001a90535060049490941c9362000c9981620012dc565b905062000c22565b50831562000cf25760405162461bcd60e51b815260206004820181905260248201527f537472696e67733a20686578206c656e67746820696e73756666696369656e74604482015260640162000439565b9392505050565b61259080620012f783390190565b60006020828403121562000d1a57600080fd5b81356001600160e01b03198116811462000cf257600080fd5b80356001600160a01b038116811462000d4b57600080fd5b919050565b6000806040838503121562000d6457600080fd5b8235915062000d766020840162000d33565b90509250929050565b60006020828403121562000d9257600080fd5b5035919050565b634e487b7160e01b600052604160045260246000fd5b60008083601f84011262000dc257600080fd5b50813567ffffffffffffffff81111562000ddb57600080fd5b60208301915083602082850101111562000df457600080fd5b9250929050565b6000610120828403121562000e0f57600080fd5b50919050565b60008060008060006080868803121562000e2e57600080fd5b62000e398662000d33565b9450602086013567ffffffffffffffff8082111562000e5757600080fd5b818801915088601f83011262000e6c57600080fd5b81358181111562000e815762000e8162000d99565b604051601f8201601f19908116603f0116810190838211818310171562000eac5762000eac62000d99565b816040528281528b602084870101111562000ec657600080fd5b82602086016020830137600060208483010152809850505050604088013591508082111562000ef457600080fd5b62000f0289838a0162000daf565b9095509350606088013591508082111562000f1c57600080fd5b5062000f2b8882890162000dfb565b9150509295509295909350565b60006020828403121562000f4b57600080fd5b62000cf28262000d33565b6000806020838503121562000f6a57600080fd5b823567ffffffffffffffff81111562000f8257600080fd5b62000f908582860162000daf565b90969095509350505050565b81835281816020850137506000828201602090810191909152601f909101601f19169091010190565b6000808335601e1984360301811262000fdd57600080fd5b830160208101925035905067ffffffffffffffff81111562000ffe57600080fd5b8060051b360382131562000df457600080fd5b81835260006001600160fb1b038311156200102b57600080fd5b8260051b80836020870137939093016020019392505050565b6040815260006200105a60408301858762000f9c565b8281036020840152610120843582526020850135602083015260408501356040830152606085013560608301526080850135608083015260a085013560a083015260c085013560c0830152620010b460e086018662000fc5565b8260e0850152620010c9838501828462001011565b92505050610100620010de8187018762000fc5565b84840383860152620010f284828462001011565b9a9950505050505050505050565b6000602082840312156200111357600080fd5b8151801515811462000cf257600080fd5b60005b838110156200114157818101518382015260200162001127565b50506000910152565b600081518084526200116481602086016020860162001124565b601f01601f19169290920160200192915050565b6001600160a01b03831681526040602082018190526000906200119e908301846200114a565b949350505050565b634e487b7160e01b600052601160045260246000fd5b600060018201620011d157620011d1620011a6565b5060010190565b6020815260006200119e60208301848662000f9c565b6000602082840312156200120157600080fd5b5051919050565b7f416363657373436f6e74726f6c3a206163636f756e74200000000000000000008152600083516200124281601785016020880162001124565b7001034b99036b4b9b9b4b733903937b6329607d1b60179184019182015283516200127581602884016020880162001124565b01602801949350505050565b60208152600062000cf260208301846200114a565b8082028115828204841417620003de57620003de620011a6565b80820180821115620003de57620003de620011a6565b634e487b7160e01b600052603260045260246000fd5b600081620012ee57620012ee620011a6565b50600019019056fe60806040523480156200001157600080fd5b506040516200259038038062002590833981016040819052620000349162000860565b6040518060400160405280600781526020016620a4a232a3b2b760c91b8152506040518060400160405280600381526020016241444760e81b8152508160009081620000819190620009c9565b506001620000908282620009c9565b50620000a291506000905033620000db565b620000bd6000805160206200257083398151915233620000db565b620000c88162000166565b620000d38262000198565b505062000c63565b620000e78282620001f6565b620001625760008281526006602090815260408083206001600160a01b03851684529091529020805460ff19166001179055620001213390565b6001600160a01b0316816001600160a01b0316837f2f8788117e7eff1d82e926ec794901d17c78024a50270940304540a733656f0d60405160405180910390a45b5050565b8060405160200162000179919062000a95565b60405160208183030381529060405260089081620001629190620009c9565b60008051602062002570833981519152620001b38162000223565b6000620001cc60096200023260201b620009351760201c565b9050620001e560096200023660201b620009391760201c565b620001f183826200023f565b505050565b60008281526006602090815260408083206001600160a01b038516845290915290205460ff165b92915050565b6200022f813362000261565b50565b5490565b80546001019055565b62000162828260405180602001604052806000815250620002e260201b60201c565b6200026d8282620001f6565b620001625762000288816200035560201b620009421760201c565b6200029e8360206200095462000368821b17811c565b604051602001620002b192919062000ac6565b60408051601f198184030181529082905262461bcd60e51b8252620002d99160040162000b6d565b60405180910390fd5b620002ee838362000528565b620002fd6000848484620006b9565b620001f15760405162461bcd60e51b815260206004820152603260248201526000805160206200255083398151915260448201527131b2b4bb32b91034b6b83632b6b2b73a32b960711b6064820152608401620002d9565b60606200021d6001600160a01b03831660145b606060006200037983600262000b98565b6200038690600262000bb2565b6001600160401b03811115620003a057620003a062000824565b6040519080825280601f01601f191660200182016040528015620003cb576020820181803683370190505b509050600360fc1b81600081518110620003e957620003e962000bc8565b60200101906001600160f81b031916908160001a905350600f60fb1b816001815181106200041b576200041b62000bc8565b60200101906001600160f81b031916908160001a90535060006200044184600262000b98565b6200044e90600162000bb2565b90505b6001811115620004d0576f181899199a1a9b1b9c1cb0b131b232b360811b85600f166010811062000486576200048662000bc8565b1a60f81b8282815181106200049f576200049f62000bc8565b60200101906001600160f81b031916908160001a90535060049490941c93620004c88162000bde565b905062000451565b508315620005215760405162461bcd60e51b815260206004820181905260248201527f537472696e67733a20686578206c656e67746820696e73756666696369656e746044820152606401620002d9565b9392505050565b6001600160a01b038216620005805760405162461bcd60e51b815260206004820181905260248201527f4552433732313a206d696e7420746f20746865207a65726f20616464726573736044820152606401620002d9565b6000818152600260205260409020546001600160a01b031615620005e75760405162461bcd60e51b815260206004820152601c60248201527f4552433732313a20746f6b656e20616c7265616479206d696e746564000000006044820152606401620002d9565b6000818152600260205260409020546001600160a01b0316156200064e5760405162461bcd60e51b815260206004820152601c60248201527f4552433732313a20746f6b656e20616c7265616479206d696e746564000000006044820152606401620002d9565b6001600160a01b038216600081815260036020908152604080832080546001019055848352600290915280822080546001600160a01b0319168417905551839291907fddf252ad1be2c89b69c2b068fc378daa952ba7f163c4a11628f55a4df523b3ef908290a45050565b6000620006da846001600160a01b03166200081560201b62000af71760201c565b156200080957604051630a85bd0160e11b81526001600160a01b0385169063150b7a02906200071490339089908890889060040162000bf8565b6020604051808303816000875af192505050801562000752575060408051601f3d908101601f191682019092526200074f9181019062000c37565b60015b620007ee573d80801562000783576040519150601f19603f3d011682016040523d82523d6000602084013e62000788565b606091505b508051600003620007e65760405162461bcd60e51b815260206004820152603260248201526000805160206200255083398151915260448201527131b2b4bb32b91034b6b83632b6b2b73a32b960711b6064820152608401620002d9565b805181602001fd5b6001600160e01b031916630a85bd0160e11b1490506200080d565b5060015b949350505050565b6001600160a01b03163b151590565b634e487b7160e01b600052604160045260246000fd5b60005b83811015620008575781810151838201526020016200083d565b50506000910152565b600080604083850312156200087457600080fd5b82516001600160a01b03811681146200088c57600080fd5b60208401519092506001600160401b0380821115620008aa57600080fd5b818501915085601f830112620008bf57600080fd5b815181811115620008d457620008d462000824565b604051601f8201601f19908116603f01168101908382118183101715620008ff57620008ff62000824565b816040528281528860208487010111156200091957600080fd5b6200092c8360208301602088016200083a565b80955050505050509250929050565b600181811c908216806200095057607f821691505b6020821081036200097157634e487b7160e01b600052602260045260246000fd5b50919050565b601f821115620001f157600081815260208120601f850160051c81016020861015620009a05750805b601f850160051c820191505b81811015620009c157828155600101620009ac565b505050505050565b81516001600160401b03811115620009e557620009e562000824565b620009fd81620009f684546200093b565b8462000977565b602080601f83116001811462000a35576000841562000a1c5750858301515b600019600386901b1c1916600185901b178555620009c1565b600085815260208120601f198616915b8281101562000a665788860151825594840194600190910190840162000a45565b508582101562000a855787850151600019600388901b60f8161c191681555b5050505050600190811b01905550565b66697066733a2f2f60c81b81526000825162000ab98160078501602087016200083a565b9190910160070192915050565b7f416363657373436f6e74726f6c3a206163636f756e742000000000000000000081526000835162000b008160178501602088016200083a565b7001034b99036b4b9b9b4b733903937b6329607d1b601791840191820152835162000b338160288401602088016200083a565b01602801949350505050565b6000815180845262000b598160208601602086016200083a565b601f01601f19169290920160200192915050565b60208152600062000521602083018462000b3f565b634e487b7160e01b600052601160045260246000fd5b80820281158282048414176200021d576200021d62000b82565b808201808211156200021d576200021d62000b82565b634e487b7160e01b600052603260045260246000fd5b60008162000bf05762000bf062000b82565b506000190190565b6001600160a01b038581168252841660208201526040810183905260806060820181905260009062000c2d9083018462000b3f565b9695505050505050565b60006020828403121562000c4a57600080fd5b81516001600160e01b0319811681146200052157600080fd5b6118dd8062000c736000396000f3fe608060405234801561001057600080fd5b506004361061014d5760003560e01c806370a08231116100c3578063a22cb4651161007c578063a22cb465146102ba578063b88d4fde146102cd578063c87b56dd146102e0578063d5391393146102f3578063d547741f1461031a578063e985e9c51461032d57600080fd5b806370a082311461027257806375090b5a1461028557806384c4bd4b1461028d57806391d148541461029757806395d89b41146102aa578063a217fddf146102b257600080fd5b8063248a9ca311610115578063248a9ca3146101e25780632f2ff15d1461021357806336568abe1461022657806340d097c31461023957806342842e0e1461024c5780636352211e1461025f57600080fd5b806301ffc9a71461015257806306fdde031461017a578063081812fc1461018f578063095ea7b3146101ba57806323b872dd146101cf575b600080fd5b610165610160366004611393565b610369565b60405190151581526020015b60405180910390f35b61018261037a565b6040516101719190611400565b6101a261019d366004611413565b61040c565b6040516001600160a01b039091168152602001610171565b6101cd6101c8366004611448565b610433565b005b6101cd6101dd366004611472565b61054d565b6102056101f0366004611413565b60009081526006602052604090206001015490565b604051908152602001610171565b6101cd6102213660046114ae565b61057e565b6101cd6102343660046114ae565b6105a3565b6101cd6102473660046114da565b610621565b6101cd61025a366004611472565b610670565b6101a261026d366004611413565b61068b565b6102056102803660046114da565b6106eb565b610182610771565b6009546102059081565b6101656102a53660046114ae565b6107ff565b61018261082a565b610205600081565b6101cd6102c83660046114f5565b610839565b6101cd6102db366004611547565b610844565b6101826102ee366004611413565b61087c565b6102057f9f2df0fed2c77648de5860a4cc508cd0818c85b8b8a1ab4ceeef8d981c8956a681565b6101cd6103283660046114ae565b610910565b61016561033b366004611623565b6001600160a01b03918216600090815260056020908152604080832093909416825291909152205460ff1690565b600061037482610b06565b92915050565b6060600080546103899061164d565b80601f01602080910402602001604051908101604052809291908181526020018280546103b59061164d565b80156104025780601f106103d757610100808354040283529160200191610402565b820191906000526020600020905b8154815290600101906020018083116103e557829003601f168201915b5050505050905090565b600061041782610b2b565b506000908152600460205260409020546001600160a01b031690565b600061043e8261068b565b9050806001600160a01b0316836001600160a01b0316036104b05760405162461bcd60e51b815260206004820152602160248201527f4552433732313a20617070726f76616c20746f2063757272656e74206f776e656044820152603960f91b60648201526084015b60405180910390fd5b336001600160a01b03821614806104cc57506104cc813361033b565b61053e5760405162461bcd60e51b815260206004820152603d60248201527f4552433732313a20617070726f76652063616c6c6572206973206e6f7420746f60448201527f6b656e206f776e6572206f7220617070726f76656420666f7220616c6c00000060648201526084016104a7565b6105488383610b8d565b505050565b6105573382610bfb565b6105735760405162461bcd60e51b81526004016104a790611687565b610548838383610c7a565b60008281526006602052604090206001015461059981610dde565b6105488383610de8565b6001600160a01b03811633146106135760405162461bcd60e51b815260206004820152602f60248201527f416363657373436f6e74726f6c3a2063616e206f6e6c792072656e6f756e636560448201526e103937b632b9903337b91039b2b63360891b60648201526084016104a7565b61061d8282610e6e565b5050565b7f9f2df0fed2c77648de5860a4cc508cd0818c85b8b8a1ab4ceeef8d981c8956a661064b81610dde565b600061065660095490565b9050610666600980546001019055565b6105488382610ed5565b61054883838360405180602001604052806000815250610844565b6000818152600260205260408120546001600160a01b0316806103745760405162461bcd60e51b8152602060048201526018602482015277115490cdcc8c4e881a5b9d985b1a59081d1bdad95b88125160421b60448201526064016104a7565b60006001600160a01b0382166107555760405162461bcd60e51b815260206004820152602960248201527f4552433732313a2061646472657373207a65726f206973206e6f7420612076616044820152683634b21037bbb732b960b91b60648201526084016104a7565b506001600160a01b031660009081526003602052604090205490565b6008805461077e9061164d565b80601f01602080910402602001604051908101604052809291908181526020018280546107aa9061164d565b80156107f75780601f106107cc576101008083540402835291602001916107f7565b820191906000526020600020905b8154815290600101906020018083116107da57829003601f168201915b505050505081565b60009182526006602090815260408084206001600160a01b0393909316845291905290205460ff1690565b6060600180546103899061164d565b61061d338383610eef565b61084e3383610bfb565b61086a5760405162461bcd60e51b81526004016104a790611687565b61087684848484610fbd565b50505050565b60606008805461088b9061164d565b80601f01602080910402602001604051908101604052809291908181526020018280546108b79061164d565b80156109045780601f106108d957610100808354040283529160200191610904565b820191906000526020600020905b8154815290600101906020018083116108e757829003601f168201915b50505050509050919050565b60008281526006602052604090206001015461092b81610dde565b6105488383610e6e565b5490565b80546001019055565b60606103746001600160a01b03831660145b606060006109638360026116ea565b61096e906002611701565b67ffffffffffffffff81111561098657610986611531565b6040519080825280601f01601f1916602001820160405280156109b0576020820181803683370190505b509050600360fc1b816000815181106109cb576109cb611714565b60200101906001600160f81b031916908160001a905350600f60fb1b816001815181106109fa576109fa611714565b60200101906001600160f81b031916908160001a9053506000610a1e8460026116ea565b610a29906001611701565b90505b6001811115610aa1576f181899199a1a9b1b9c1cb0b131b232b360811b85600f1660108110610a5d57610a5d611714565b1a60f81b828281518110610a7357610a73611714565b60200101906001600160f81b031916908160001a90535060049490941c93610a9a8161172a565b9050610a2c565b508315610af05760405162461bcd60e51b815260206004820181905260248201527f537472696e67733a20686578206c656e67746820696e73756666696369656e7460448201526064016104a7565b9392505050565b6001600160a01b03163b151590565b60006001600160e01b03198216632483248360e11b1480610374575061037482610ff0565b6000818152600260205260409020546001600160a01b0316610b8a5760405162461bcd60e51b8152602060048201526018602482015277115490cdcc8c4e881a5b9d985b1a59081d1bdad95b88125160421b60448201526064016104a7565b50565b600081815260046020526040902080546001600160a01b0319166001600160a01b0384169081179091558190610bc28261068b565b6001600160a01b03167f8c5be1e5ebec7d5bd14f71427d1e84f3dd0314c0f7b2291e5b200ac8c7c3b92560405160405180910390a45050565b600080610c078361068b565b9050806001600160a01b0316846001600160a01b03161480610c4e57506001600160a01b0380821660009081526005602090815260408083209388168352929052205460ff165b80610c725750836001600160a01b0316610c678461040c565b6001600160a01b0316145b949350505050565b826001600160a01b0316610c8d8261068b565b6001600160a01b031614610cb35760405162461bcd60e51b81526004016104a790611741565b6001600160a01b038216610d155760405162461bcd60e51b8152602060048201526024808201527f4552433732313a207472616e7366657220746f20746865207a65726f206164646044820152637265737360e01b60648201526084016104a7565b826001600160a01b0316610d288261068b565b6001600160a01b031614610d4e5760405162461bcd60e51b81526004016104a790611741565b600081815260046020908152604080832080546001600160a01b03199081169091556001600160a01b0387811680865260038552838620805460001901905590871680865283862080546001019055868652600290945282852080549092168417909155905184937fddf252ad1be2c89b69c2b068fc378daa952ba7f163c4a11628f55a4df523b3ef91a4505050565b610b8a8133611015565b610df282826107ff565b61061d5760008281526006602090815260408083206001600160a01b03851684529091529020805460ff19166001179055610e2a3390565b6001600160a01b0316816001600160a01b0316837f2f8788117e7eff1d82e926ec794901d17c78024a50270940304540a733656f0d60405160405180910390a45050565b610e7882826107ff565b1561061d5760008281526006602090815260408083206001600160a01b0385168085529252808320805460ff1916905551339285917ff6391f5c32d9c69d2a47ea670b442974b53935d1edc7fd64eb21e047a839171b9190a45050565b61061d82826040518060200160405280600081525061106e565b816001600160a01b0316836001600160a01b031603610f505760405162461bcd60e51b815260206004820152601960248201527f4552433732313a20617070726f766520746f2063616c6c65720000000000000060448201526064016104a7565b6001600160a01b03838116600081815260056020908152604080832094871680845294825291829020805460ff191686151590811790915591519182527f17307eab39ab6107e8899845ad3d59bd9653f200f220920489ca2b5937696c31910160405180910390a3505050565b610fc8848484610c7a565b610fd4848484846110a1565b6108765760405162461bcd60e51b81526004016104a790611786565b60006001600160e01b03198216637965db0b60e01b14806103745750610374826111a2565b61101f82826107ff565b61061d5761102c81610942565b611037836020610954565b6040516020016110489291906117d8565b60408051601f198184030181529082905262461bcd60e51b82526104a791600401611400565b61107883836111f2565b61108560008484846110a1565b6105485760405162461bcd60e51b81526004016104a790611786565b60006001600160a01b0384163b1561119757604051630a85bd0160e11b81526001600160a01b0385169063150b7a02906110e590339089908890889060040161184d565b6020604051808303816000875af1925050508015611120575060408051601f3d908101601f1916820190925261111d9181019061188a565b60015b61117d573d80801561114e576040519150601f19603f3d011682016040523d82523d6000602084013e611153565b606091505b5080516000036111755760405162461bcd60e51b81526004016104a790611786565b805181602001fd5b6001600160e01b031916630a85bd0160e11b149050610c72565b506001949350505050565b60006001600160e01b031982166380ac58cd60e01b14806111d357506001600160e01b03198216635b5e139f60e01b145b8061037457506301ffc9a760e01b6001600160e01b0319831614610374565b6001600160a01b0382166112485760405162461bcd60e51b815260206004820181905260248201527f4552433732313a206d696e7420746f20746865207a65726f206164647265737360448201526064016104a7565b6000818152600260205260409020546001600160a01b0316156112ad5760405162461bcd60e51b815260206004820152601c60248201527f4552433732313a20746f6b656e20616c7265616479206d696e7465640000000060448201526064016104a7565b6000818152600260205260409020546001600160a01b0316156113125760405162461bcd60e51b815260206004820152601c60248201527f4552433732313a20746f6b656e20616c7265616479206d696e7465640000000060448201526064016104a7565b6001600160a01b038216600081815260036020908152604080832080546001019055848352600290915280822080546001600160a01b0319168417905551839291907fddf252ad1be2c89b69c2b068fc378daa952ba7f163c4a11628f55a4df523b3ef908290a45050565b6001600160e01b031981168114610b8a57600080fd5b6000602082840312156113a557600080fd5b8135610af08161137d565b60005b838110156113cb5781810151838201526020016113b3565b50506000910152565b600081518084526113ec8160208601602086016113b0565b601f01601f19169290920160200192915050565b602081526000610af060208301846113d4565b60006020828403121561142557600080fd5b5035919050565b80356001600160a01b038116811461144357600080fd5b919050565b6000806040838503121561145b57600080fd5b6114648361142c565b946020939093013593505050565b60008060006060848603121561148757600080fd5b6114908461142c565b925061149e6020850161142c565b9150604084013590509250925092565b600080604083850312156114c157600080fd5b823591506114d16020840161142c565b90509250929050565b6000602082840312156114ec57600080fd5b610af08261142c565b6000806040838503121561150857600080fd5b6115118361142c565b91506020830135801515811461152657600080fd5b809150509250929050565b634e487b7160e01b600052604160045260246000fd5b6000806000806080858703121561155d57600080fd5b6115668561142c565b93506115746020860161142c565b925060408501359150606085013567ffffffffffffffff8082111561159857600080fd5b818701915087601f8301126115ac57600080fd5b8135818111156115be576115be611531565b604051601f8201601f19908116603f011681019083821181831017156115e6576115e6611531565b816040528281528a60208487010111156115ff57600080fd5b82602086016020830137600060208483010152809550505050505092959194509250565b6000806040838503121561163657600080fd5b61163f8361142c565b91506114d16020840161142c565b600181811c9082168061166157607f821691505b60208210810361168157634e487b7160e01b600052602260045260246000fd5b50919050565b6020808252602d908201527f4552433732313a2063616c6c6572206973206e6f7420746f6b656e206f776e6560408201526c1c881bdc88185c1c1c9bdd9959609a1b606082015260800190565b634e487b7160e01b600052601160045260246000fd5b8082028115828204841417610374576103746116d4565b80820180821115610374576103746116d4565b634e487b7160e01b600052603260045260246000fd5b600081611739576117396116d4565b506000190190565b60208082526025908201527f4552433732313a207472616e736665722066726f6d20696e636f72726563742060408201526437bbb732b960d91b606082015260800190565b60208082526032908201527f4552433732313a207472616e7366657220746f206e6f6e20455243373231526560408201527131b2b4bb32b91034b6b83632b6b2b73a32b960711b606082015260800190565b7f416363657373436f6e74726f6c3a206163636f756e74200000000000000000008152600083516118108160178501602088016113b0565b7001034b99036b4b9b9b4b733903937b6329607d1b60179184019182015283516118418160288401602088016113b0565b01602801949350505050565b6001600160a01b0385811682528416602082015260408101839052608060608201819052600090611880908301846113d4565b9695505050505050565b60006020828403121561189c57600080fd5b8151610af08161137d56fea26469706673582212205f294e0f4c6bc8992ad5d3c4598b0471d3a37ffd516bccc37d76c9cf25f64b9864736f6c634300081200334552433732313a207472616e7366657220746f206e6f6e2045524337323152659f2df0fed2c77648de5860a4cc508cd0818c85b8b8a1ab4ceeef8d981c8956a6a2646970667358221220fbd5bb90860c2d519c402d2e18341ca894516f79c51484eb8765f635543a89a264736f6c63430008120033",
  "devdoc": {
    "events": {
      "RoleAdminChanged(bytes32,bytes32,bytes32)": {
        "details": "Emitted when `newAdminRole` is set as ``role``'s admin role, replacing `previousAdminRole` `DEFAULT_ADMIN_ROLE` is the starting admin for all roles, despite {RoleAdminChanged} not being emitted signaling this. _Available since v3.1._"
      },
      "RoleGranted(bytes32,address,address)": {
        "details": "Emitted when `account` is granted `role`. `sender` is the account that originated the contract call, an admin role bearer except when using {AccessControl-_setupRole}."
      },
      "RoleRevoked(bytes32,address,address)": {
        "details": "Emitted when `account` is revoked `role`. `sender` is the account that originated the contract call:   - if using `revokeRole`, it is the admin role bearer   - if using `renounceRole`, it is the role bearer (i.e. `account`)"
      }
    },
    "kind": "dev",
    "methods": {
      "getRoleAdmin(bytes32)": {
        "details": "Returns the admin role that controls `role`. See {grantRole} and {revokeRole}. To change a role's admin, use {_setRoleAdmin}."
      },
      "grantRole(bytes32,address)": {
        "details": "Grants `role` to `account`. If `account` had not been already granted `role`, emits a {RoleGranted} event. Requirements: - the caller must have ``role``'s admin role. May emit a {RoleGranted} event."
      },
      "hasRole(bytes32,address)": {
        "details": "Returns `true` if `account` has been granted `role`."
      },
      "renounceRole(bytes32,address)": {
        "details": "Revokes `role` from the calling account. Roles are often managed via {grantRole} and {revokeRole}: this function's purpose is to provide a mechanism for accounts to lose their privileges if they are compromised (such as when a trusted device is misplaced). If the calling account had been revoked `role`, emits a {RoleRevoked} event. Requirements: - the caller must be `account`. May emit a {RoleRevoked} event."
      },
      "revokeRole(bytes32,address)": {
        "details": "Revokes `role` from `account`. If `account` had been granted `role`, emits a {RoleRevoked} event. Requirements: - the caller must have ``role``'s admin role. May emit a {RoleRevoked} event."
      },
      "supportsInterface(bytes4)": {
        "details": "See {IERC165-supportsInterface}."
      }
    },
    "version": 1
  },
  "userdoc": {
    "kind": "user",
    "methods": {},
    "version": 1
  },
  "storageLayout": {
    "storage": [
      {
        "astId": 151,
        "contract": "contracts/AIDeGenFactory.sol:AIDeGenFactory",
        "label": "_roles",
        "offset": 0,
        "slot": "0",
        "type": "t_mapping(t_bytes32,t_struct(RoleData)146_storage)"
      },
      {
        "astId": 3605,
        "contract": "contracts/AIDeGenFactory.sol:AIDeGenFactory",
        "label": "owner",
        "offset": 0,
        "slot": "1",
        "type": "t_address"
      },
      {
        "astId": 3607,
        "contract": "contracts/AIDeGenFactory.sol:AIDeGenFactory",
        "label": "cartesiDapp",
        "offset": 0,
        "slot": "2",
        "type": "t_address"
      },
      {
        "astId": 3621,
        "contract": "contracts/AIDeGenFactory.sol:AIDeGenFactory",
        "label": "nftCollections",
        "offset": 0,
        "slot": "3",
        "type": "t_mapping(t_uint256,t_address)"
      },
      {
        "astId": 3624,
        "contract": "contracts/AIDeGenFactory.sol:AIDeGenFactory",
        "label": "collectionCounter",
        "offset": 0,
        "slot": "4",
        "type": "t_uint256"
      },
      {
        "astId": 3628,
        "contract": "contracts/AIDeGenFactory.sol:AIDeGenFactory",
        "label": "usedNotices",
        "offset": 0,
        "slot": "5",
        "type": "t_mapping(t_bytes32,t_bool)"
      }
    ],
    "types": {
      "t_address": {
        "encoding": "inplace",
        "label": "address",
        "numberOfBytes": "20"
      },
      "t_bool": {
        "encoding": "inplace",
        "label": "bool",
        "numberOfBytes": "1"
      },
      "t_bytes32": {
        "encoding": "inplace",
        "label": "bytes32",
        "numberOfBytes": "32"
      },
      "t_mapping(t_address,t_bool)": {
        "encoding": "mapping",
        "key": "t_address",
        "label": "mapping(address => bool)",
        "numberOfBytes": "32",
        "value": "t_bool"
      },
      "t_mapping(t_bytes32,t_bool)": {
        "encoding": "mapping",
        "key": "t_bytes32",
        "label": "mapping(bytes32 => bool)",
        "numberOfBytes": "32",
        "value": "t_bool"
      },
      "t_mapping(t_bytes32,t_struct(RoleData)146_storage)": {
        "encoding": "mapping",
        "key": "t_bytes32",
        "label": "mapping(bytes32 => struct AccessControl.RoleData)",
        "numberOfBytes": "32",
        "value": "t_struct(RoleData)146_storage"
      },
      "t_mapping(t_uint256,t_address)": {
        "encoding": "mapping",
        "key": "t_uint256",
        "label": "mapping(uint256 => address)",
        "numberOfBytes": "32",
        "value": "t_address"
      },
      "t_struct(RoleData)146_storage": {
        "encoding": "inplace",
        "label": "struct AccessControl.RoleData",
        "members": [
          {
            "astId": 143,
            "contract": "contracts/AIDeGenFactory.sol:AIDeGenFactory",
            "label": "members",
            "offset": 0,
            "slot": "0",
            "type": "t_mapping(t_address,t_bool)"
          },
          {
            "astId": 145,
            "contract": "contracts/AIDeGenFactory.sol:AIDeGenFactory",
            "label": "adminRole",
            "offset": 0,
            "slot": "1",
            "type": "t_bytes32"
          }
        ],
        "numberOfBytes": "64"
      },
      "t_uint256": {
        "encoding": "inplace",
        "label": "uint256",
        "numberOfBytes": "32"
      }
    }
  }
}